:100000000C94E0000C9408010C9408010C94080175
:100010000C9408010C9408010C9408010C94EE0B4C
:100020000C9408010C9408010C9408010C9408012C
:100030000C9408010C9408010C9408010C9408011C
:100040000C94A40B0C9408010C94700C0C944A0CA6
:100050000C9408010C9408010C9408010C940801FC
:100060000C94A20C0C94080100407A10F35A00A0E2
:10007000724E18090010A5D4E80000E87648170071
:1000800000E40B54020000CA9A3B000000E1F505B1
:10009000000080969800000040420F000000A086FB
:1000A00001000000102700000000E803000000002D
:1000B0006400000000000A000000000001000000D1
:1000C00000002C76D888DC674F0823DFC1DFAE59EB
:1000D000E1B1B796E5E3E453C63AE651997696E87E
:1000E000E6C28426EB898C9B62ED407C6FFCEFBC02
:1000F0009C9F40F2BAA56FA5F490055A2AF75C932D
:100100006B6CF9676DC11BFCE0E40D47FEF520E662
:10011000B500D0ED902E0300943577050080841E45
:10012000080000204E0A000000C80C333333330FA0
:10013000986E12831141EF8D2114893BE65516CF3D
:10014000FEE6DB18D1844B381BF77C1D901DA4BB49
:10015000E424203284725E228100C9F124ECA1E5FE
:100160003D2700000000240027002A0000000008AE
:10017000000201000003040700000000000000006E
:1001800000000000230026002900000000002500D8
:1001900028002B00020404040404040404020202E4
:1001A00002020203030303030301020408102040B8
:1001B0008001020408102001020408102000060E2D
:1001C00011241FBECFEFD8E0DEBFCDBF23E0A6EDE8
:1001D000B1E001C01D92AF3AB207E1F711E0A0E033
:1001E000B1E0E4EAFBE302C005900D92A63DB10741
:1001F000D9F710E0C0EED0E004C02197FE010E94C4
:10020000D81BCF3DD107C9F70E94720E0C94D01DA8
:100210000C94000008950895CF92DF92EF92FF9220
:10022000CF93DF93B0917A03A0E08111AB2F80913F
:100230007B0390E0880F991FAC0140585E4FC0903F
:100240008003D0908103E0908203F090830330E03C
:1002500020E0FA01C591D491E881B90190E080E0F5
:10026000EB23EA130AC02F5F3F4F6C157D058E0507
:100270009F0578F36FEF7FEFCB01DF91CF91FF9078
:10028000EF90DF90CF90089590E0FC01E459FE4F8D
:100290002491FC01E755FE4F3491FC01EB56FE4FD3
:1002A000E491EE23C9F0222339F0233001F1A8F4C0
:1002B000213019F1223029F1F0E0EE0FFF1FE6574F
:1002C000FE4FA591B4918FB7F894EC91611126C0BF
:1002D00030953E233C938FBF08952730A9F02830F6
:1002E000C9F0243049F7809180008F7D03C0809150
:1002F00080008F7780938000DFCF84B58F7784BDB7
:10030000DBCF84B58F7DFBCF8091B0008F7780935A
:10031000B000D2CF8091B0008F7DF9CF3E2BDACFE5
:10032000CF93DF9390E0FC01E755FE4F24918B566D
:100330009E4FFC0184918823C9F090E0880F991F9B
:10034000FC01EE59FE4FA591B491FC01E657FE4F1A
:10035000C591D49161110DC09FB7F8948C912095EF
:1003600082238C938881282328839FBFDF91CF919C
:100370000895623051F49FB7F8943C91822F809594
:1003800083238C93E8812E2BEFCF8FB7F894EC91D9
:100390002E2B2C938FBFEACFCF92DF92EF92FF925A
:1003A000CF936C0180910001873049F08F3F09F4B1
:1003B00044C0CF91FF90EF90DF90CF900895E4E993
:1003C000F1E0C491C7FDF5CF61E087E00E949001A4
:1003D000F12CE12CCC23D9F0960150E040E0C23062
:1003E00009F09AC07A0160E970ED83E090E00E9424
:1003F000B11BBA01A901415051096109710993E08A
:100400004F3F51056105710509F00CF4C1C068E466
:1004100078EE81E090E0A70196010E94B11BBA013D
:10042000A901415051096109710994E0C111B0C09D
:1004300085B5887F836085BDB7C087E08093000164
:10044000E4E9F1E0C491CF3F09F4B3CFC13021F129
:1004500050F0C23009F43EC0C7FDABCF61E087E089
:100460000E949001B9CF14BC15BC84B5826084BDD4
:1004700085B5816085BDECE9F1E0E491F0E0EE0F37
:10048000FF1FE657FE4F85919491E0EBF1E0E49178
:10049000E0934702C0E098CF109280001092810054
:1004A00080918100886080938100809181008160CB
:1004B00080938100ECE9F1E0E491F0E0EE0FFF1FA2
:1004C000E657FE4F85919491E0EBF1E0E491E093E3
:1004D00046027ACF1092B0001092B1008091B00025
:1004E00082608093B0008091B10081608093B10000
:1004F000ECE9F1E0E491F0E0EE0FFF1FE657FE4F6C
:10050000859194919093450280934402E0EBF1E051
:10051000E491E093430258CF60E072E18AE790E013
:100520000E94B11BBA01A901415051096109710929
:10053000C130A1F580918100887F81608093810026
:1005400050938900409388008FEF9FEFDC018093E8
:100550004C0290934D02A0934E02B0934F028091B3
:100560006F00826080936F0024CF4093B3008FEFC1
:100570009FEFDC018093480290934902A0934A02C6
:10058000B0934B028091700082608093700011CF15
:100590008091B100887F892B8093B100C13081F2B6
:1005A000C23019F3C11105CF47BD8FEF9FEFDC01BA
:1005B0008093500290935102A0935202B093530241
:1005C00080916E00826080936E00F3CE3FB7F89406
:1005D00080913B0290913C02A0913D02B0913E027D
:1005E00026B5A89B05C02F3F19F00196A11DB11D8E
:1005F0003FBFBA2FA92F982F8827BC01CD01620FCA
:10060000711D811D911D42E0660F771F881F991F84
:100610004A95D1F708958F929F92AF92BF92CF9251
:10062000DF92EF92FF924B015C010E94E6026B01A8
:100630007C010E94E6026C197D098E099F09683EC3
:10064000734081059105A8F321E0821A9108A10861
:10065000B10888EEC80E83E0D81EE11CF11C81149D
:100660009104A104B10429F7FF90EF90DF90CF909F
:10067000BF90AF909F908F900895CF92DF92EF92AE
:10068000FF920F931F93CF93DF93CDB7DEB7C05484
:10069000D1400FB6F894DEBF0FBECDBF2FB7F89490
:1006A00080913F0290914002A0914102B09142029C
:1006B0002FBF40917C0350917D0360917E03709128
:1006C0007F038C019D01041B150B260B370BB90111
:1006D000A801403D57406105710590F48091840365
:1006E000C05CDE4F0FB6F894DEBF0FBECDBFDF910A
:1006F000CF911F910F91FF90EF90DF90CF900895D1
:1007000080937C0390937D03A0937E03B0937F033B
:10071000109277031092760310927503109274036F
:100720001092730362E0809178030E94900161E06F
:1007300070E080E090E00E940B0361E0809178031C
:100740000E94900160E0809178030E9444018091B2
:1007500079038551823020F58BE291E10197F1F721
:1007600062E0809178030E9490018091850390E07F
:100770008230910538F0880F991F880F991F0597CF
:100780000197F1F7F89480E00E940C016F3F7F4FD2
:100790008F4F9F4F61F410928403789480E0A0CF34
:1007A00064E170E080E090E00E940B03D9CF81E02B
:1007B0000E940C016F3F7F4F8F4F9F4F61F38E015F
:1007C0000F5F1F4F6E018FEBC81A8EEFD80A7801AA
:1007D00080E00E940C01F701608371838283938320
:1007E00081E00E940C01F7016483758386839783FF
:1007F000F8E0EF0EF11CEC14FD0451F7789430E0B2
:1008000020E0F801C080D180E280F38044815581EE
:1008100066817781FFEFCF16DF06EF06FF0631F026
:100820004F3F8FEF58076807780719F41092840339
:10083000B5CFF90183E0F595E7958A95E1F7ED5895
:10084000FC4F8081880FC416D506E606F70610F126
:1008500080832F5F3F4F085F1F4F2832310589F695
:10086000409177032091730380917403280F3327FD
:10087000331F80917503280F311D80917603820FFD
:10088000932F911D99274817190681F681E08093CF
:10089000840326CF8160DCCF9091000189130BC0C7
:1008A000E4E9F1E0E4919FEF90930001E13049F039
:1008B00028F0E23061F060E00C94440110926E0088
:1008C000FACF90916F009D7F90936F00F4CF90913D
:1008D00070009D7F9093700091E09093B000909194
:1008E000B100987F94609093B1001092B300E3CF71
:1008F000AF92BF92CF92DF92EF92FF920F931F932E
:10090000CF93DF936C017B018B01040F151FEB016B
:100910005E01AE18BF08C017D10759F06991D60122
:10092000ED91FC910190F081E02DC6010995892B94
:1009300079F7C501DF91CF911F910F91FF90EF9053
:10094000DF90CF90BF90AF900895FC01538D448D00
:10095000252F30E0842F90E0821B930B541710F06A
:10096000CF96089501970895FC01918D828D981777
:1009700061F0A28DAE0FBF2FB11D5D968C91928D4F
:100980009F5F9F73928F90E008958FEF9FEF089580
:10099000FC01918D828D981731F0828DE80FF11D49
:1009A000858D90E008958FEF9FEF0895FC01918D64
:1009B000228D892F90E0805C9F4F821B91098F735D
:1009C000992708958AEC92E00E94D60421E0892BB1
:1009D00009F420E0822F089580E090E0892B29F02F
:1009E0000E94E20481110C9400000895FC01A48D82
:1009F000A80FB92FB11DA35ABF4F2C91848D90E041
:100A000001968F739927848FA689B7892C93A08923
:100A1000B1898C91837080648C93938D848D9813AD
:100A200006C00288F389E02D80818F7D8083089540
:100A3000EF92FF920F931F93CF93DF93EC0181E02E
:100A4000888F9B8D8C8D98131AC0E889F9898081D5
:100A500085FF15C09FB7F894EE89FF896083E88908
:100A6000F98980818370806480839FBF81E090E0FA
:100A7000DF91CF911F910F91FF90EF900895F62E87
:100A80000B8D10E00F5F1F4F0F731127E02E8C8D21
:100A90008E110CC00FB607FCFACFE889F989808166
:100AA00085FFF5CFCE010E94F604F1CFEB8DEC0F60
:100AB000FD2FF11DE35AFF4FF0829FB7F8940B8F83
:100AC000EA89FB8980818062CFCFCF93DF93EC01ED
:100AD000888D8823B9F0AA89BB89E889F9898C9126
:100AE00085FD03C0808186FD0DC00FB607FCF7CFE2
:100AF0008C9185FFF2CF808185FFEDCFCE010E94E2
:100B0000F604E9CFDF91CF91089508952091F70180
:100B1000260F3327331F21323105ECF42091A00238
:100B2000FC0190E080E0243069F082E00895A0911B
:100B3000F7012191AC0149525E4FA40FB52FB11DB1
:100B40002C930196861798F38091F701680F6093B4
:100B5000F70180E0089581E008951092A00281E0FD
:100B600080939F0210927A0261E082E10E94440128
:100B700061E083E10E944401E9EBF0E080818E7F37
:100B8000808380818D7F808388E48093B80085E4B2
:100B90008093BC000895109259021092580210924E
:100BA000A7021092C9020E94AD058AE091E09093DD
:100BB0005702809356028BE091E090935502809308
:100BC00054020895CF93DF9391E09093D601882348
:100BD000B9F0C091B800D091BA008091BC008A7B76
:100BE0008093BC0060E082E10E94440160E083E108
:100BF0000E9444010E94AD05D093BA00C093B80092
:100C0000DF91CF9108958F929F92AF92BF92CF9232
:100C1000DF92EF92FF920F931F93CF93DF93D091C8
:100C2000C902D13208F0D7C0182FC091C8020E9463
:100C3000E6026B017C018091A00281116BC082E011
:100C40008093A00210939F028FEF80939E021092D8
:100C50009D02D0939C02A8EAB2E0ECE7F2E080E0CB
:100C6000D81391C010927B0280917B02CC0FC82BCD
:100C7000C0937B0280917A02813009F088C0109283
:100C80007A020E94E6026B017C0180917B028093D4
:100C9000BB008091A2029091A302A091A402B09106
:100CA000A502892B8A2B8B2BA1F00E94E6020091D2
:100CB000A2021091A3022091A4023091A5026C1906
:100CC0007D098E099F09061717072807390708F4B9
:100CD00042C08091BC0083FDD8CF85EC8093BC00DE
:100CE0000E94E6026B017C018091A002823009F42F
:100CF00050C080919E028F3F09F46FC080919E0288
:100D0000803209F46CC080919E02803309F469C07E
:100D100084E026C08091A2029091A302A091A40237
:100D2000B091A502892B8A2B8B2B09F484CF0E94CA
:100D3000E6028090A2029090A302A090A402B0903C
:100D4000A5026C197D098E099F0986169706A806CB
:100D5000B90608F070CF8091A1020E94E20585E0FB
:100D60001092A7021092C9021092A602DF91CF91B1
:100D70001F910F91FF90EF90DF90CF90BF90AF90B9
:100D80009F908F9008959D9191938F5F69CF85EE8D
:100D9000A5CF8091A2029091A302A091A402B0914C
:100DA000A502892B8A2B8B2B09F49ECF0E94E60289
:100DB0000091A2021091A3022091A4023091A502F9
:100DC0006C197D098E099F0906171707280739072F
:100DD00008F08ACFC0CF81E0C3CF80E0C1CF82E0EE
:100DE000BFCF83E0BDCFDC0111968D919C91DC01DA
:100DF000ED91FC910280F381E02D41E050E00995F6
:100E0000019729F481E00E94030691E0811190E0AE
:100E1000892F08950F931F93CF93DF93E1E0F0E0C4
:100E20002115310511F0E2E0F0E0EC01AC81BD816B
:100E3000AE17BF0738F1DA018B0189819A814881A9
:100E400051E05093A6024093C8021092A70210925C
:100E5000C902232B41F4B801CE01DF91CF911F913C
:100E60000F910C94F3061097B1F3FC0120813181AE
:100E7000F9012281338141E050E0BD01F90109957A
:100E8000019749F380E0DF91CF911F910F91089571
:100E9000CF93DF93EC018B818823A1F0888191E0CF
:100EA0009093A6028093C8021092A7021092C902E2
:100EB00081E00E94030691E0811190E0892FDF918B
:100EC000CF9108950E94CB0581E08B83CE010E94D3
:100ED0004807982F8111E2CFF1CF0895E091590290
:100EE00080915802E81730F4F0E0E65AFD4F808117
:100EF00090E008958FEF9FEF0895909159028091AF
:100F000058022FEF3FEF981748F4E92FF0E0E65A28
:100F1000FD4F208130E09F5F90935902C9010895F1
:100F20008091580290915902891B990B0895CF9294
:100F3000DF92EF92FF920F931F93CF93DF937C0189
:100F4000CB018A012091A602222389F0EB016B01DB
:100F5000C40ED51ECC15DD0569F06991D701ED9160
:100F6000FC910190F081E02DC7010995F3CF642F2A
:100F70000E948605C801DF91CF911F910F91FF90CC
:100F8000EF90DF90CF900895CF93DF931F92CDB76E
:100F9000DEB769832091A6022223F9F02091C902CD
:100FA000203258F021E030E0FC013383228390E0CE
:100FB00080E00F90DF91CF9108958091A702E82FF4
:100FC000F0E0E855FD4F998190838F5F8093A702F1
:100FD0008093C90281E090E0ECCF61E0CE01019600
:100FE0000E948605F7CFFC01248131E03093A602F0
:100FF0002093C8021092A7021092C9028385682B21
:1010000087E693E00E94C40781E00C94030690E019
:1010100080E00895FC0101900020E9F73197AF01CD
:10102000481B590BBC018FE993E00C9478042F9274
:101030003F924F925F926F927F928F929F92AF9268
:10104000BF92CF92DF92EF92FF920F931F93CF93B5
:10105000DF93DC011496ED91FC911597EF2B09F4C9
:1010600022C169012A01EC01888191E09093A602D6
:101070008093C8021092A7021092C902CD010E946B
:10108000F306782E882309F40EC1F12CE12C3324C9
:1010900033948C819D8186010E191F098017910759
:1010A00008F48C0128800E94E6024B015C018091CB
:1010B000A002811173C0602EB0E2B01710F480E27C
:1010C000682E3092A00221E0C601801B910BE81629
:1010D000F90608F420E020939F02EFEFE0939E02D0
:1010E00010929D028FEF860D80939C0230927B02BE
:1010F00080917B02220C282A20927B0280917A0226
:10110000813009F090C010927A020E94E6024B01F1
:101110005C0180917B028093BB008091A202909140
:10112000A302A091A402B091A502892B8A2B8B2B3C
:10113000A1F00E94E6022091A2023091A302409108
:10114000A4025091A502681979098A099B092617FA
:1011500037074807590708F442C08091BC0083FD57
:10116000D8CFF5ECF093BC000E94E6024B015C0185
:101170008091A002813009F45AC080919D028615A9
:1011800010F460909D02ACE7B2E0EAE5F2E080E0A6
:10119000861551F19D9191938F5FFACF8091A202B4
:1011A0009091A302A091A402B091A502892B8A2B51
:1011B0008B2B09F47CCF0E94E6022091A202309191
:1011C000A3024091A4025091A502681979098A09E5
:1011D0009B09261737074807590708F068CF809101
:1011E000A1020E94E205612C1092590260925802FD
:1011F0006016110609F057C042018E0C9F1C540165
:10120000C501881999098017910798F589819A81F4
:10121000DC01ED91FC910284F385E02D0995F50147
:1012200081935F01EDCF85EE8093BC009DCF8091CF
:10123000A2029091A302A091A402B091A502892BD1
:101240008A2B8B2B09F494CF0E94E6022091A202F4
:101250003091A3024091A4025091A5026819790926
:101260008A099B09261737074807590708F080CFD6
:10127000B6CFE00EF11EEC14FD0408F40ACF872D62
:10128000DF91CF911F910F91FF90EF90DF90CF9062
:10129000BF90AF909F908F907F906F905F904F9096
:1012A0003F902F900895712CEACFCF93DF9300D019
:1012B0001F92CDB7DEB78B8322E030E0AE014F5FE7
:1012C0005F4FBE016D5F7F4F8091860390918703D2
:1012D0000E94170889819A819827892798270F905B
:1012E0000F900F90DF91CF910895CF93DF9300D0AF
:1012F000CDB7DEB78EE28A8384EF898321E030E0C8
:10130000AE014F5F5F4FBE016E5F7F4F80918603DE
:10131000909187030E940A0765E070E080E090E00A
:101320000E940B0386EF0E9455090F900F90DF91EA
:10133000CF9108950F931F93CF938C01C62F0E94D6
:10134000F3076C2F6460C8010E94F3076C2F6B7F5A
:10135000C8010E94F30783EC90E00197F1F7CF9169
:101360001F910F9108950F931F93CF93DF938C01DB
:10137000D62FC42F607F642B0E949A0980E1D89FEA
:10138000B00111246C2BC801DF91CF911F910F91F7
:101390000C949A0940E061E08FE993E00E94B30960
:1013A0008BE39FE10197F1F70895CF93DF93CDB7DA
:1013B000DEB728970FB6F894DEBF0FBECDBF98E01A
:1013C000E7E0F1E0DE01119601900D929A95E1F7C8
:1013D0009091A703981708F48FEF90E0880F991F5A
:1013E00021E030E02C0F3D1F820F931FFC01608134
:1013F000606840E08FE993E028960FB6F894DEBF6E
:101400000FBECDBFDF91CF910C94B30941E00E9494
:10141000B30981E090E00895CF93DF93EC018881D8
:101420009981009711F00E947A1C198218821D82FE
:101430001C821B821A82DF91CF910895FC0180816A
:101440009181009711F00C947A1C08950F931F93CB
:10145000CF93DF93EC0188819981009759F02A811D
:101460003B812617370730F081E0DF91CF911F9144
:101470000F9108958B016F5F7F4F0E94031D0097AE
:1014800059F0998388831B830A832C813D81232B08
:1014900059F7FC011082E8CF80E0E7CF0F931F934C
:1014A000CF93DF93EC010C811D810F5F1F4FB801BB
:1014B0000E94260A882391F0288139818C819D81A0
:1014C0006FE371E0820F931F0E94C91D1D830C837F
:1014D000CE01DF91CF911F910F910895CE010E940F
:1014E0000C0AF6CFEF92FF920F931F93CF93DF93E7
:1014F000EC01198218821B821A821D821C828617B7
:10150000970719F1FB010081118101151105E9F01F
:10151000E480F580B7010E94260A811109C0CE013E
:10152000DF91CF911F910F91FF90EF900C940C0AD7
:10153000FD82EC82B80188819981DF91CF911F9162
:101540000F91FF90EF900C94C91DDF91CF911F91E7
:101550000F91FF90EF900895EF92FF920F931F93DA
:10156000CF93DF938C017B01EB0109900020E9F719
:101570002197C61BD70BBE010E94260A811109C004
:10158000C801DF91CF911F910F91FF90EF900C94C4
:101590000C0AF801D583C483B70180819181DF9162
:1015A000CF911F910F91FF90EF900C94C91D0F9355
:1015B0001F93CF93DF93CDB7DEB762970FB6F89442
:1015C000DEBF0FBECDBF8C01CB01F80111821082AE
:1015D00013821282158214824AE0BE016F5F7F4F30
:1015E0000E949816BE016F5F7F4FC8010E94AC0A2F
:1015F00062960FB6F894DEBF0FBECDBFDF91CF91DC
:101600001F910F910895EF92FF920F931F93CF9325
:10161000DF93CDB7DEB7A1970FB6F894DEBF0FBE4C
:10162000CDBF7C01CB01BA01F70111821082138278
:101630001282158214828E010F5F1F4F22E044E058
:101640000E947A16009789F0BC01C7010E94AC0A7B
:10165000A1960FB6F894DEBF0FBECDBFDF91CF913C
:101660001F910F91FF90EF900895C7010E940C0AFF
:10167000EFCFEF92FF920F931F93CF93DF93EC0185
:10168000FB01E080F180E114F10411F10481158186
:1016900001151105A9F08C819D81080F191FB80152
:1016A000CE010E94260A882399F0288139818C81F5
:1016B0009D81B701820F931F0E94C91D1D830C835A
:1016C000CE01DF91CF911F910F91FF90EF90089580
:1016D000CE010E940C0AF4CF85ED8093BC0080916E
:1016E000A2029091A302A091A402B091A502079634
:1016F000A11DB11D23E0B695A795979587952A95CD
:10170000D1F72091BC0024FD03C01092A0020895DF
:101710004091A2025091A3026091A4027091A5028F
:10172000452B462B472B69F30097A105B10541F0E6
:101730002AE22A95F1F700C00197A109B109E1CF8A
:101740008091A1020C94E2051F920F920FB60F92A6
:1017500011242F933F938F939F93AF93BF938091C7
:101760003F0290914002A0914102B091420230911B
:101770003A0223E0230F2D3758F50196A11DB11D24
:1017800020933A0280933F0290934002A09341023B
:10179000B093420280913B0290913C02A0913D02A5
:1017A000B0913E020196A11DB11D80933B02909322
:1017B0003C02A0933D02B0933E02BF91AF919F9136
:1017C0008F913F912F910F900FBE0F901F90189502
:1017D00026E8230F0296A11DB11DD2CF1F920F92B2
:1017E0000FB60F9211242F933F934F935F936F93F4
:1017F0007F938F939F93AF93BF93EF93FF938091CA
:10180000480290914902A0914A02B0914B02892B63
:101810008A2B8B2BD1F190914302E0914402F091FD
:1018200045028081892780838091480290914902F6
:10183000A0914A02B0914B02181619061A061B060F
:101840009CF48091480290914902A0914A02B09183
:101850004B020197A109B109809348029093490274
:10186000A0934A02B0934B02FF91EF91BF91AF91C9
:101870009F918F917F916F915F914F913F912F91A8
:101880000F900FBE0F901F901895809100010E943D
:101890004C04EACF1F920F920FB60F9211242F9390
:1018A0003F934F935F936F937F938F939F93AF93E8
:1018B000BF93EF93FF938AEC92E00E94F604FF91AE
:1018C000EF91BF91AF919F918F917F916F915F91B8
:1018D0004F913F912F910F900FBE0F901F90189531
:1018E0001F920F920FB60F9211242F938F939F93F5
:1018F000EF93FF93E091DA02F091DB028081E091B7
:10190000E002F091E10282FD1BC090818091E30230
:101910008F5F8F732091E402821741F0E091E30220
:10192000F0E0E653FD4F958F8093E302FF91EF9136
:101930009F918F912F910F900FBE0F901F90189530
:101940008081F4CF1F920F920FB60F9211242F9324
:101950003F934F935F936F937F938F939F93AF9337
:10196000BF93EF93FF938091B900887F803609F48D
:101970004AC0F0F5883209F4A7C018F5803109F49F
:101980009BC0B8F4882309F4F9C0883009F494C0E6
:10199000FF91EF91BF91AF919F918F917F916F9147
:1019A0005F914F913F912F910F900FBE0F901F901D
:1019B0001895883109F488C0803251F780939E02CF
:1019C00014C0803409F49DC040F48033B9F38833E7
:1019D000F9F680939E0285ECB0C0803509F485C08D
:1019E000883509F496C0883499F60E946C0BD0CFE4
:1019F000883909F48CC038F5883729F050F48836D6
:101A000011F0803729F683E08093A002109219022A
:101A100057C0883809F47BC0803919F0803809F044
:101A2000B7CF80911902803208F071C0E09119029D
:101A300081E08E0F809319028091BB00F0E0E750A7
:101A4000FE4F80833DC0803B39F0E0F4803A09F4DA
:101A500079C0883A09F09CCF84E08093A00210926C
:101A6000F8011092F701E0915602F09157020995A2
:101A70008091F70181110FC081E08093F7011092EE
:101A8000D70109C0803C09F4A6CF883C09F4A3CF54
:101A9000883B09F07DCFE091F80181E08E0F8093C3
:101AA000F801F0E0E952FE4F80818093BB009091F5
:101AB000F8018091F70129C080917B028093BB00DF
:101AC00085EC8093BC0064CF90919D0280919C0234
:101AD000981758F5E0919D0281E08E0F80939D024A
:101AE000F0E0E458FD4F8081E9CFE0919D0281E074
:101AF0008E0F80939D028091BB00F0E0E458FD4F73
:101B0000808390919D0280919C029817C8F285E88D
:101B1000D8CFE0919D0281E08E0F80939D0280914D
:101B2000BB00F0E0E458FD4F808380919F0281115B
:101B30005CCF81E080937A0284EA8093BC001092AB
:101B4000A00226CF85EC8093BC001092A002809169
:101B50001902803230F4E0911902F0E0E750FE4FB4
:101B600010826091190270E0E0915402F0915502E8
:101B700089EF91E00995109219020ACF10929E0206
:101B800034CFCF92DF92EF92FF920F931F93E82F03
:101B9000F92F05C0015011092109310961F1908126
:101BA00096239417B9F305C0015011092109310991
:101BB00011F1908196239413F7CFC12CD12CE12CF5
:101BC000F12C0AC08FEFC81AD80AE80AF80A0C15D7
:101BD0001D052E053F0579F080818623841791F33A
:101BE0006C2D7D2D8E2D9F2D1F910F91FF90EF90CD
:101BF000DF90CF90089560E070E080E090E01F916A
:101C00000F91FF90EF90DF90CF900895EAECF2E013
:101C10001382128288EE93E0A0E0B0E08483958383
:101C2000A683B78323E131E03183208325EC30E0C4
:101C30003587248724EC30E03787268720EC30E096
:101C4000318B208B21EC30E0338B228B22EC30E087
:101C5000358B248B26EC30E0378B268B118E128E41
:101C6000138E148EE7E6F3E0138212828483958349
:101C7000A683B78385E291E091838083EFE9F3E067
:101C80001382128287E391E09183808380E28483D0
:101C900080E1818782E08287138610928703109209
:101CA0008603A3E7B3E084E015968C9315978BE049
:101CB00016968C931697EDEAF1E0E4911796EC9363
:101CC0001797E9E9F1E0E4911896EC93189740E84A
:101CD0005EE360E070E01D964D935D936D937C93A1
:101CE00050970895CF93DF93CDB7DEB7C556D1098E
:101CF0000FB6F894DEBF0FBECDBF789484B5826076
:101D000084BD84B5816084BD85B5826085BD85B59F
:101D1000816085BD80916E00816080936E0010921D
:101D20008100809181008260809381008091810098
:101D30008160809381008091800081608093800029
:101D40008091B10084608093B1008091B000816087
:101D50008093B00080917A00846080937A008091B3
:101D60007A00826080937A0080917A00816080930B
:101D70007A0080917A00806880937A001092C10086
:101D800061E08CE00E94900160E08BE00E94900195
:101D900061E082E00E94900161E083E00E94900196
:101DA00060E08FE00E94900160E085E00E94900179
:101DB00061E08AE00E94900161E089E00E94900168
:101DC00061E086E00E94900161E087E00E9490015E
:101DD000E091DA02F091DB0282E08083E091D602AA
:101DE000F091D7021082E091D802F091D9028FECE5
:101DF00080831092E202E091DE02F091DF0286E041
:101E00008083E091DC02F091DD028081806180833B
:101E1000E091DC02F091DD02808188608083E091B6
:101E2000DC02F091DD02808180688083E091DC0239
:101E3000F091DD0280818F7D80830E94CB0510921E
:101E4000A4038091A903823018F098E09093A40332
:101E50008093A70362E370E080E090E00E940B03B0
:101E60006091AA038FE993E00E94F30768EE73E0A4
:101E700080E090E00E940B0360E38FE993E00E9412
:101E80009A090BE416E4C8010197F1F760E38FE9C2
:101E900093E00E949A09C8010197F1F760E38FE986
:101EA00093E00E949A0983E592E00197F1F760E2DE
:101EB0008FE993E00E949A096091A403606240E078
:101EC0008FE993E00E94B30984E08093A50340E08A
:101ED0006CE08FE993E00E94B3090E94CA0982E096
:101EE0008093A60340E066E08FE993E00E94B30987
:101EF00040E062E08FE993E00E94B3098BE39FE149
:101F00000197F1F788E08093AA0360E08FE993E0FE
:101F10000E94F30762E0809178030E9490012FB73E
:101F2000F89480913F0290914002A0914102B091BB
:101F300042022FBF805D9740A109B10980937C03C5
:101F400090937D03A0937E03B0937F0387E38093F8
:101F5000850383E0809388038091860390918703B3
:101F6000009711F00E947A1C86E090E00E94DE1B30
:101F70008C0187E7D8018C9387E693E012969C93B7
:101F80008E93119713961C92139780E290E015960A
:101F90009C938E93149710938703009386030E945B
:101FA000CB0581E0F8018383C8010E94480788239C
:101FB00009F463C080EDA2968FAFA29721E030E0D4
:101FC000AE014F5F5F4FBE016F597F4F8091860317
:101FD000909187030E9417088981853509F04DC0CB
:101FE0008AEA0E94550990938A03809389038CEAB8
:101FF0000E94550990938C0380938B038EEA0E9474
:10200000550990938E0380938D0380EB0E945509B0
:1020100090939A038093990382EB0E9455099093C1
:102020009C0380939B0384EB0E94550990939E032D
:1020300080939D0386EB0E945509909390038093B3
:102040008F0388EB0E94550990939203809391032C
:102050008AEB0E94550990939403809393038CEB31
:102060000E94550990939603809395038EEB0E94EE
:102070005509909398038093970380E00E94D509B7
:1020800081E491E00E940A0860ED77E080E090E052
:102090000E940B030E94CA0960E08CE00E94440188
:1020A00083E090E00197F1F761E08CE00E94440149
:1020B00083E290E00197F1F760E08CE00E94440138
:1020C000E4EBF1E06491E0EAF1E0E491F0E0EE0F9E
:1020D000FF1FE058FE4F8591949100E412E42FE039
:1020E00030E0462F0E94C10D6115710581059105F3
:1020F00029F06F5F7F4F8F4F9F4F9F700E942B196A
:1021000028E23EE74CE05DE30E948C1920E030E0DD
:1021100040E05FE30E948C196093360270933702AF
:1021200080933802909339020E943D03882349F03E
:10213000809179038B3028F08D3040F085518230CA
:10214000D0F160E070E080EC9FE71CC06091740308
:1021500070E090E080E00E942D192DEC3CEC4CECFE
:102160005DE30E948C196B017C016091730370E048
:1021700090E080E00E942D199B01AC01C701B601DF
:102180000E949C1A6093320270933302809334024F
:10219000909335020E943D03882341F0809179039A
:1021A0008C3009F41AC4C8F48B3081F160E070E01F
:1021B00080EC9FE753C0609173037091740376279E
:1021C0006727762790E080E00E942B192DEC3CECED
:1021D0004CEC5DE30E948C19D5CF8551823030F7ED
:1021E00010917503612F70E0762F662766277F7741
:1021F00080917603682B90E080E00E942B192DECF3
:102200003CEC4CEC5DE30E948C1903C460917503B7
:1022100070E090E080E00E942B196B017C0110912E
:10222000760317FF0AC0AC019B0160E070E080E814
:102230009FEB0E949B1A6B017C011F70612F70E065
:1022400090E080E00E942D192DEC3CEC4CEC5DE31D
:102250000E948C19A70196010E949C1A60932E027D
:1022600070932F0280933002909331020E9475097F
:102270009C0150E040E080919D0390919E03281BBB
:10228000390B41095109A0919B03B0919C030E9415
:102290004A1A6B017C01BFE0F594E794D794C79488
:1022A000BA95D1F76091950370919603072E000CB3
:1022B000880B990B1BE0660F771F881F991F1A95D3
:1022C000D1F72091970330919803032E000C440B13
:1022D000550B2C0D3D1D4E1D5F1D0E94B11BCA01EB
:1022E000B9016C0D7D1D8E1D9F1D685F7F4F8F4F47
:1022F0009F4F04E095958795779567950A95D1F757
:102300000E942D1920E030E040E251E40E94081BB9
:1023100060932A0270932B0280932C0290932D02DB
:102320000E9475096C01F12CE12C80918803829543
:10233000880F880F807C8C5CA1968FAFA19784EF6B
:10234000A0968FAFA09721E030E0AE01415A5F4FD9
:10235000BE01605A7F4F80918603909187030E944F
:102360000A0780918803811158C365E070E080E01E
:1023700090E00E940B0386EF0E945509B0E0A0E0B8
:102380008824982EA92EBA2E88EF6F968FAF6F975C
:1023900021E030E0AE014F5F5F4FBE01625A7F4FD8
:1023A00080918603909187030E9417088981A50177
:1023B0009401282BA6962CAF3DAF4EAF5FAFA697EA
:1023C0001091880380919D0390919E03A70196012F
:1023D000281B390B41095109A0919B03B0919C0323
:1023E0000E944A1A6B017C01AFE0F594E794D79400
:1023F000C794AA95D1F76091950370919603072E23
:10240000000C880B990BBBE0660F771F881F991F84
:10241000BA95D1F72091970330919803032E000CC1
:10242000440B550B2C0D3D1D4E1D5F1D0E94B11B15
:10243000C20ED31EE41EF51E30EAC31A3FE0D30AD3
:10244000E108F108A7019601C701B6010E947F1BB0
:102450002B013C010CE075946794579447940A95BE
:10246000D1F7A0918D03B0918E030E94D01B4B0138
:102470005C018DE0B594A794979487948A95D1F7E1
:10248000A0918F03B0919003A30192010E94D01BF1
:102490009C01552737FD5095452F280D391D4A1DA4
:1024A0005B1D2E5F3F4F4F4F5F4F62E05595479545
:1024B000379527956A95D1F730584F4F5F4FA091C8
:1024C0009903B0919A030E944A1A4B015C017FE084
:1024D000B694A794979487947A95D1F788E090E082
:1024E000811B9109A6962CAD3DAD4EAD5FADA69773
:1024F00004C056954795379527958A95D2F7A696A5
:102500002CAF3DAF4EAF5FAFA697A0919103B091B6
:102510009203A30192010E94D01B2B013C01EBE02E
:102520007594679457944794EA95D1F7A0918B03DB
:10253000B0918C03A70196010E94D01BFBE09595FA
:10254000879577956795FA95D1F7640D751D861D6A
:10255000971D4090890350908A03052C000C660853
:102560007708A2E0440C551C661C771CAA95D1F78D
:10257000640D751D861D971D012E04C0660F771F03
:10258000881F991F0A94D2F76E5F7F4F8F4F9F4F1E
:1025900024E030E040E050E00E94B11BA6968CADF4
:1025A0009DADAEADBFADA697821B930BA40BB50B33
:1025B0009C01AD0160E573EC80E090E004C096956D
:1025C0008795779567951A95D2F70E947F1B97FD9F
:1025D00037C2660F771F881F991FA50194010E94BB
:1025E0008F1B69017A019927F7FC9A958F2D7E2D13
:1025F0006D2D9B01AC010E947F1B9B01AC01AEEDD8
:10260000BBE00E944A1A4B015C01A3E4B3EEA701B0
:1026100096010E94D31BBC01992777FD9095892FC5
:102620004501BB2497FCB094AB2C680D791D8A1D25
:102630009B1D6153714F8F4F9F4F44E09595879538
:10264000779567954A95D1F76C0D7D1D8E1D9F1D61
:102650000E942D1920E030E048EC52E40E94081B53
:102660006093260270932702809328029093290298
:1026700081E480937C0080917A00806480937A006A
:1026800080917A0086FDFCCF60917800709179008E
:10269000072E000C880B990B0E942D1960932202C3
:1026A000709323028093240290932502EEEAF1E0D6
:1026B0006491EAE9F1E0E491F0E0EE0FFF1FE058E9
:1026C000FE4F8591949100E412E42FE030E040E069
:1026D0000E94C10D611571058105910529F06F5F9B
:1026E0007F4F8F4F9F4F9F700E942B1920E030E04B
:1026F0004AE754E40E94081B60931E0270931F0275
:1027000080932002909321020E94CA0920E030E0C9
:1027100048E452E4609136027091370280913802A9
:10272000909139020E947A1B87FD95C110921D027B
:1027300010921C0260E082E00E94440160E083E0AD
:102740000E94440187E00E944C0410921B021092E8
:102750001A0260E086E00E94440161E08AE00E9483
:10276000900160E08AE00E94440161E089E00E94FB
:10277000900160E089E00E94440180E00E94D50958
:1027800082E591E00E940A088FB7F894C0903F025A
:10279000D0904002E0904102F09042028FBF6091E1
:1027A0001A0270911B02CE0182960E94D70A4091B4
:1027B0003602509137026091380270913902CE0191
:1027C00088960E94030B409122025091230260914F
:1027D000240270912502CE018E960E94030B409137
:1027E0001E0250911F026091200270912102CE01C1
:1027F000C4960E94030B40912602509127026091DB
:10280000280270912902CE01CA960E94030B4091C2
:102810003202509133026091340270913502CE0140
:10282000805C9F4F0E94030B40912E0250912F021B
:102830006091300270913102CE018A5B9F4F0E94FD
:10284000030B60911C0270911D02CE01845B9F4FAF
:102850000E94D70A64961FAE1EAE649766961FAE9E
:102860001EAE669768961FAE1EAE6897C701B6018A
:1028700028EE33E040E050E00E948F1BCA01B9010E
:102880002AE0AE014F5F5F4F0E94A316BE016F5F4B
:102890007F4FCE018E5A9F4F0E94AC0ABE016E5AE6
:1028A0007F4FCE0101960E94720ACE0101960E94CE
:1028B0004E0ABE01645B7F4F0E94390B0E944E0A94
:1028C000BE016A5B7F4F0E94390B0E944E0ABE0117
:1028D000605C7F4F0E94390B0E944E0ABE01665C0D
:1028E0007F4F0E94390B0E944E0ABE016C5C7F4FE5
:1028F0000E94390B0E944E0ABE01625D7F4F0E940A
:10290000390B0E944E0ABE01685D7F4F0E94390B51
:102910000E944E0ABE016E5D7F4F0E94390BBC01C2
:10292000CE01885A9F4F0E94720ACE0101960E94E2
:102930001E0ACE018E5A9F4F0E941E0ACE01845B52
:102940009F4F0E941E0ACE018A5B9F4F0E941E0A63
:10295000CE01805C9F4F0E941E0ACE01CA960E9443
:102960001E0ACE01C4960E941E0ACE018E960E94B7
:102970001E0ACE0188960E941E0ACE0182960E94EF
:102980001E0A6E964EAD5FAD6E976A966EAD7FADC8
:102990006A978AEC92E00E94780442E050E063ED8E
:1029A00071E08AEC92E00E94780460ED77E080E0CC
:1029B00090E00E940B03CE01885A9F4F0E941E0A8E
:1029C00080E090E0892B09F467CB0E94E204882321
:1029D00009F462CB0E9400005FCB10917503612F58
:1029E00070E090E080E00E942B196B017C01609107
:1029F00076036F7070E090E080E00E942D192DEC5E
:102A00003CEC4CEC5DE30E948C19A70196010E94FE
:102A10009C1A17FF23CC905821CC813029F468E010
:102A200070E080E090E0A5CC823029F46EE070E0A8
:102A300080E090E09ECC6AE170E080E090E099CC8C
:102A4000A50194010E948F1B69017A01CC0CDD1C49
:102A5000EE1CFF1CC8CD01E010E010931D02009396
:102A60001C0280E00E94D5098FE591E00E940A08CF
:102A700020E030E040EF51E460912E0270912F028F
:102A800080913002909131020E947A1B87FF10C022
:102A900020E030E040EF51E460912A0270912B0277
:102AA00080912C0290912D020E947A1B87FD33C0E9
:102AB00061E082E00E94440160E083E00E94440102
:102AC00088EE93E00E94CC0181E090E090931B029D
:102AD00080931A0261E086E00E94440161E08AE08E
:102AE0000E94900161E08AE00E94440161E089E077
:102AF0000E94900160E089E00E94440180E00E9411
:102B0000D5098EE691E00E940A0881E00E94D5096D
:102B10008CE791E037CE20E030E046E153E460916D
:102B20001E0270911F0280912002909121020E944A
:102B30007A1B18168CF561E082E00E94440160E087
:102B400083E00E94440188EE93E00E94CC01109340
:102B50001B0200931A0261E086E00E94440161E0DA
:102B60008AE00E94900161E08AE00E94440161E0F5
:102B700089E00E94900160E089E00E94440180E0C9
:102B80000E94D5098EE691E00E940A0881E00E9429
:102B9000D5098DE891E0F6CDC0903202D090330295
:102BA000E0903402F090350220E030E04CE852E44E
:102BB000C701B6010E947A1B18168CF561E082E00D
:102BC0000E94440160E083E00E94440188EE93E0AB
:102BD0000E94CC0110931B0200931A0261E086E070
:102BE0000E94440161E08AE00E94900161E08AE075
:102BF0000E94440161E089E00E94900160E089E068
:102C00000E94440180E00E94D5098EE691E00E9476
:102C10000A0881E00E94D5098EE991E0B3CD20E059
:102C200030E040E252E4C701B6010E94261987FF56
:102C300031C061E082E00E94440160E083E00E94D4
:102C4000440180E293E00E94CC0110921B0210929A
:102C50001A0260E086E00E94440161E08AE00E947E
:102C6000900160E08AE00E94440161E089E00E94F6
:102C7000900160E089E00E94440180E00E94D50953
:102C80008EE691E00E940A0881E00E94D5098CEA54
:102C900091E078CD60E082E00E94440161E083E051
:102CA0000E94440187E00E944C0410921B02109283
:102CB0001A0260E086E00E94440161E08AE00E941E
:102CC000900160E08AE00E94440161E089E00E9496
:102CD000900160E089E00E94440180E00E94D509F3
:102CE00089EB91E00E940A0881E00E94D50988ECF6
:102CF00091E048CDEF920F931F93CF93DF93E801BC
:102D000034E047FD34E1042E000C550B57FF03C09F
:102D1000519541955109E32E022F242FAE010E94B7
:102D2000DF16CE01DF91CF911F910F91EF900895A3
:102D3000BB274A3031F4992322F4BDE29095819566
:102D40009F4F0C94C616BB27FA01A62F6217710578
:102D500081059105330B30FB66F0AA27660F771FBC
:102D6000881F991FAA1FA21710F0A21B6395385045
:102D7000A9F7A05DAA3308F0A95DA19336F7B111B8
:102D8000B1931082CA010C941619BB27FB01552779
:102D9000AA27880F991FAA1FA41710F0A41B8395B8
:102DA0005051B9F7A05DAA3308F0A95DA19300972F
:102DB00079F7B111B1931192CB010C941619A9E0D6
:102DC000B0E0E5EEF6E10C945B1A6A01F22EB02E4B
:102DD000102FFBE3AF2EA01608F41BE31F5F012F9B
:102DE00027E0AE014F5F5F4F0E943E18BC01898112
:102DF000982F9970913009F43FC09BE2E1FC04C028
:102E00009E2D9170E0FC3AC05E2D5071E82FE87065
:102E100083FF46C084E0911101C083E0EF2DE81BE1
:102E20008F1508F0E0E0D6018E2F20E2552351F1F6
:102E3000992329F0D6019C93C60101966C01960155
:102E40002D5F3F4FE2FE24C08EE4D6018C9391E4C7
:102E500011969C93119712968C93D9018E2F90E224
:102E600081111BC0E20FF32FF11D10828EEF9FEF37
:102E70002996ECE00C94771A9DE2C6CF90E2C4CF7D
:102E80002D9381508111FCCFCE0ED11CE0E0D0CF2C
:102E90008EE6D6018C9391E6DBCF9D938150E0CFF7
:102EA000482F447082FF3DC084E0911101C083E04F
:102EB0008F1510F4EF2DE81BD6018E2F20E255233D
:102EC00009F1992329F0D6019C93C60101966C0162
:102ED00096012D5F3F4FE2FE1BC089E4D6018C9323
:102EE0008EE411968C93119786E412968C93D901F7
:102EF0008E2F90E2882309F4B5CF9D938150FACFAD
:102F00002D9381508111FCCFCE0ED11CE0E0D9CFA2
:102F100089E6D6018C938EE611968C93119786E6FE
:102F2000E4CF9B0177FF02C030E020E0A1E0B0E0F9
:102F3000911102C0B0E0A0E0F9013196AE0FBF1FC1
:102F40008B2C912CBB2009F461C05401EFEFAE1A19
:102F5000BE0AAA0DBB1DFA161B0619F014F04F2D60
:102F60004A1B511188C0E3FC59C07601A42FB0E27E
:102F7000A1114FC0C40ED11C992309F45BC040E0DD
:102F8000D6011196F60190836D01552309F448C0CE
:102F9000012F060F9A81582F507184FF03C091337F
:102FA00009F4015010160CF047C0093008F008E091
:102FB000EEE2FE2E5B01A01AB10885019194819486
:102FC00091082F3F320729F4D601FC92F601319681
:102FD0006F016217730794F1021713077CF5DB0189
:102FE000A21BB30BAA24A394B12CAC0EBD1EAA0D38
:102FF000BB1D11968C9121503109D60111962815CF
:103000003905F4F0F60180836D01DBCFB12CA12CE2
:10301000A0CFF701B1937F01A150AACF9111B0CFFA
:10302000D601942F50E302C05D9391509111FCCFD3
:10303000C40ED11C40E0ACCF01E0BACF80E3DBCFBF
:103040006217730731F4963388F4953311F45523DE
:1030500069F0F6018083FD01842F90E2811108C0A0
:10306000A40FB11D1C9290E080E002CF81E3F1CF6C
:1030700091938150F3CF911183CF8ACF283008F0FC
:1030800027E03327DA01990F311D87FD9160009603
:103090006105710539F432602E5F3D9330E32A9566
:1030A000E1F708959F3F30F080387105610509F020
:1030B0003C5F3C5F3D93913008F08068911DDF9349
:1030C000CF931F930F93FF92EF92192F987F9695AE
:1030D000E92F96959695E90FFF27EE53FF4F992715
:1030E0003327EE24FF24A701E701059008940794F5
:1030F00028F4360FE71EF81E491F511D660F771F73
:10310000881F991F0694A1F70590079428F4E70EED
:10311000F81E491F561FC11D770F881F991F661F74
:103120000694A1F70590079428F4F80E491F561F3E
:10313000C71FD11D880F991F661F771F0694A1F71F
:103140000590079420F4490F561FC71FD81F990FE9
:10315000661F771F881F0694A9F784911095177032
:1031600041F0D695C79557954795F794E7941A95EA
:10317000C1F7E8E6F0E068941590159135916591F6
:10318000959105907FE27395E118F10A430B560B78
:10319000C90BD009C0F7E10CF11E431F561FC91F10
:1031A000D01D7EF4703311F48A95E6CFE894015077
:1031B00030F0080F0AF40027021708F4202F239597
:1031C000022F7A3328F079E37D932A95E9F710C02E
:1031D0007D932A9589F60694979567953795179567
:1031E0001794E118F10A430B560BC90BD00998F05C
:1031F00023957E9173957A3308F070E37C932013C6
:10320000B8F77E9170617D9330F0839571E37D9383
:1032100070E32A95E1F71124EF90FF900F911F9131
:10322000CF91DF91992787FD90950895DC01FC01EE
:10323000672F71917723E1F7329704C07C916D93EA
:1032400070836291AE17BF07C8F308950E94681992
:1032500008F481E00895E89409C097FB3EF4909546
:103260008095709561957F4F8F4F9F4F9923A9F05F
:10327000F92F96E9BB279395F695879577956795EE
:10328000B795F111F8CFFAF4BB0F11F460FF1BC032
:103290006F5F7F4F8F4F9F4F16C0882311F096E9C5
:1032A00011C0772321F09EE8872F762F05C0662373
:1032B00071F096E8862F70E060E02AF09A95660F2C
:1032C000771F881FDAF7880F9695879597F90895E5
:1032D000990F0008550FAA0BE0E8FEEF1616170627
:1032E000E807F907C0F012161306E407F50798F08F
:1032F000621B730B840B950B39F40A2661F0232BA8
:10330000242B252B21F408950A2609F4A140A69523
:103310008FEF811D811D08950E949F190C94101A32
:103320000E94021A38F00E94091A20F0952311F029
:103330000C94F9190C94FF1911240C94441A0E944E
:10334000211A70F3959FC1F3950F50E0551F629FAE
:10335000F001729FBB27F00DB11D639FAA27F00DEE
:10336000B11DAA1F649F6627B00DA11D661F829F15
:103370002227B00DA11D621F739FB00DA11D621FFA
:10338000839FA00D611D221F749F3327A00D611D17
:10339000231F849F600D211D822F762F6A2F1124F9
:1033A0009F5750409AF0F1F088234AF0EE0FFF1F2C
:1033B000BB1F661F771F881F91505040A9F79E3F83
:1033C000510580F00C94F9190C94441A5F3FE4F312
:1033D000983ED4F3869577956795B795F795E795D9
:1033E0009F5FC1F7FE2B880F911D9695879597F9E2
:1033F000089597F99F6780E870E060E008959FEF77
:1034000080EC089500240A9416161706180609067B
:10341000089500240A94121613061406050608954A
:10342000092E0394000C11F4882352F0BB0F40F4D2
:10343000BF2B11F460FF04C06F5F7F4F8F4F9F4F12
:10344000089557FD9058440F551F59F05F3F71F094
:103450004795880F97FB991F61F09F3F79F08795FB
:103460000895121613061406551FF2CF4695F1DF84
:1034700008C0161617061806991FF1CF8695710514
:10348000610508940895E894BB2766277727CB0148
:1034900097F908950E948C1AA59F900DB49F900DE6
:1034A000A49F800D911D112408952F923F924F9259
:1034B0005F926F927F928F929F92AF92BF92CF92C4
:1034C000DF92EF92FF920F931F93CF93DF93CDB7CD
:1034D000DEB7CA1BDB0B0FB6F894DEBF0FBECDBF45
:1034E00009942A88398848885F846E847D848C8416
:1034F0009B84AA84B984C884DF80EE80FD800C811F
:103500001B81AA81B981CE0FD11D0FB6F894DEBF01
:103510000FBECDBFED010895A29FB001B39FC001C2
:10352000A39F700D811D1124911DB29F700D811DEF
:103530001124911D08955058BB27AA270E94B31A41
:103540000C94101A0E94021A38F00E94091A20F0F6
:1035500039F49F3F19F426F40C94FF190EF4E0950A
:10356000E7FB0C94F919E92F0E94211A58F3BA17B6
:10357000620773078407950720F079F4A6F50C9489
:10358000431A0EF4E0950B2EBA2FA02D0B01B901B2
:1035900090010C01CA01A0011124FF27591B99F0C9
:1035A000593F50F4503E68F11A16F040A22F232FD5
:1035B000342F4427585FF3CF469537952795A79525
:1035C000F0405395C9F77EF41F16BA0B620B730BCC
:1035D000840BBAF09150A1F0FF0FBB1F661F771F3D
:1035E000881FC2F70EC0BA0F621F731F841F48F4F2
:1035F000879577956795B795F7959E3F08F0B0CF7B
:103600009395880F08F09927EE0F97958795089561
:103610000E941C1B0C94101A0E94091A58F00E9458
:10362000021A40F029F45F3F29F00C94F919511166
:103630000C94441A0C94FF190E94211A68F39923E0
:10364000B1F3552391F3951B550BBB27AA2762179E
:103650007307840738F09F5F5F4F220F331F441FAB
:10366000AA1FA9F335D00E2E3AF0E0E832D09150DF
:103670005040E695001CCAF72BD0FE2F29D0660FCC
:10368000771F881FBB1F261737074807AB07B0E80F
:1036900009F0BB0B802DBF01FF2793585F4F3AF015
:1036A0009E3F510578F00C94F9190C94441A5F3F31
:1036B000E4F3983ED4F3869577956795B795F7959B
:1036C0009F5FC9F7880F911D9695879597F9089583
:1036D000E1E0660F771F881FBB1F6217730784071F
:1036E000BA0720F0621B730B840BBA0BEE1F88F72E
:1036F000E09508950E94681908F48FEF0895DB01A2
:103700008F939F930E944A1ABF91AF91A29F800D01
:10371000911DA39F900DB29F900D11240895A1E2D9
:103720001A2EAA1BBB1BFD010DC0AA1FBB1FEE1F3B
:10373000FF1FA217B307E407F50720F0A21BB30B86
:10374000E40BF50B661F771F881F991F1A9469F702
:1037500060957095809590959B01AC01BD01CF015E
:103760000895052E97FB1EF400940E94C81B57FD78
:1037700007D00E948F1B07FC03D04EF40C94C81B8B
:1037800050954095309521953F4F4F4F5F4F08958D
:1037900090958095709561957F4F8F4F9F4F0895BD
:1037A000B7FF0C944A1A0E944A1A821B930B089581
:1037B000EE0FFF1F0590F491E02D09940F931F93D6
:1037C000CF93DF938230910510F482E090E0E09196
:1037D000AD03F091AE0330E020E0B0E0A0E0309720
:1037E00099F42115310509F44AC0281B390B2430FE
:1037F0003105D8F58A819B816115710589F1FB013D
:1038000093838283FE0111C0408151810281138123
:1038100048175907E0F04817590799F4109761F0D5
:1038200012960C93129713961C933296CF01DF9148
:10383000CF911F910F9108950093AD031093AE03A4
:10384000F4CF2115310551F04217530738F0A90183
:10385000DB019A01BD01DF01F801C1CFEF01F9CF12
:103860009093AE038093AD03CDCFFE01E20FF31F23
:10387000819391932250310939832883D7CF2091A6
:10388000AB033091AC03232B41F420910301309121
:1038900004013093AC032093AB03209101013091DC
:1038A00002012115310541F42DB73EB740910501C4
:1038B00050910601241B350BE091AB03F091AC0352
:1038C000E217F307A0F42E1B3F0B2817390778F0F7
:1038D000AC014E5F5F4F2417350748F04E0F5F1F56
:1038E0005093AC034093AB03819391939FCFF0E04F
:1038F000E0E09CCFCF93DF930097E9F0FC01329793
:1039000013821282A091AD03B091AE03ED0130E0BD
:1039100020E01097A1F420813181820F931F209124
:10392000AB033091AC032817390709F061C0F0935D
:10393000AC03E093AB03DF91CF910895EA01CE177A
:10394000DF07E8F54A815B819E0141155105B1F71A
:10395000E901FB83EA8349915991C40FD51FEC1704
:10396000FD0761F4808191810296840F951FE90122
:1039700099838883828193819B838A83F0E0E0E04E
:1039800012968D919C9113970097B9F52D913C91CA
:103990001197CD010296820F931F2091AB033091B6
:1039A000AC032817390739F6309751F51092AE035A
:1039B0001092AD03B093AC03A093AB03BCCFD38301
:1039C000C28340815181840F951FC817D90761F4C4
:1039D0004E5F5F4F88819981480F591F5183408303
:1039E0008A819B81938382832115310509F0B0CFB1
:1039F000F093AE03E093AD039ECFFD01DC01C0CF99
:103A000013821282D7CFB0E0A0E0E9E0FDE10C9490
:103A1000571A8C01009751F4CB010E94DE1B8C01D8
:103A2000C801CDB7DEB7E0E10C94731AFC01E60FD4
:103A3000F71F9C0122503109E217F30708F49DC0DB
:103A4000D901CD91DC911197C617D70798F0C530F1
:103A5000D10530F3CE0104978617970708F3C61BEC
:103A6000D70B2297C193D1936D937C93CF010E9482
:103A70007A1CD6CF5B01AC1ABD0A4C018C0E9D1E80
:103A8000A091AD03B091AE03512C412CF12CE12C4F
:103A9000109731F58091AB039091AC03881599058F
:103AA00009F05CC04616570608F058C08091010125
:103AB00090910201009741F48DB79EB740910501A6
:103AC00050910601841B950BE817F90708F055C0C3
:103AD000F093AC03E093AB03F90171836083A0CF53
:103AE0008D919C91119712966C90129713967C90E1
:103AF0001397A815B90559F56C0142E0C40ED11C05
:103B0000CA14DB0420F1AC014A195B09DA011296F0
:103B1000159780F06282738251834083D9016D933F
:103B20007C93E114F10471F0D7011396FC93EE93AA
:103B3000129776CF22968C0F9D1FF9019183808377
:103B4000F301EFCFF093AE03E093AD0369CF4816D6
:103B5000590608F42C017D01D3019ACFCB010E94B4
:103B6000DE1B7C01009749F0AE01B8010E94C01D28
:103B7000C8010E947A1C870153CF10E000E050CFAB
:103B8000FB01DC0102C001900D9241505040D8F77A
:103B90000895FB01DC0101900D920020E1F70895EA
:043BA000F894FFCFC7
:103BA400FF0000AF03800000004000140054000038
:103BB40000000018057804A5046505D604B404C8FB
:103BC4000400000000C407970707086D0790077DED
:103BD400076E0700000000060A7804070885052C14
:103BE40000454E5649524F4E4D454E54205359535D
:103BF40054004E6F204F63637570616E6379004D9E
:103C04006F6E69746F7220416374697665004D6FDD
:103C14006E69746F7220416C6572740048696768DC
:103C24002054656D706572617475726500506F6FB4
:103C34007220416972205175616C69747900486918
:103C440067682048756D6964697479004C6F7720E2
:103C540048756D6964697479004D6F6E69746F722B
:103C64002053797374656D00414C4C204E4F524D76
:063C7400414C000D0A00A6
:00000001FF
